:1020A80000A8C0003F065B4F666D7D077F6F777C99
:1020B800395E4000BF86DBCFE6EDFD87FFEF61624A
:0420C8006364656682
:100B8E000237001E0225000A024E0028022B001911
:100B9E00075030000906090121023AAA5501220A1E
:1005EC00E4F55FD5220375220AE53924FE70030277
:1005FC0007EE14700302082D1470030208711470B6
:10060C0003020906240460030209A012240C784496
:10061C007C007D007E007F0A12032DAE27AF287C64
:10062C00007D0F1203A2AD38AC371221967527004E
:10063C008F28AD4FAC4EAF36AE35122196753500C6
:10064C008F3612234ABF0105755A0D8003755A0A5D
:10065C00AC25AD26E41201DA7BCD7ACC79CC783D91
:10066C00120056C004C005C006C007AC27AD28E474
:10067C001201DAA804A905AA06AB07D007D006D048
:10068C0005D00412015C60025006755C0A02071C5E
:10069C00AC25AD26E41201DAE4FBFA7980783E123F
:1006AC000056C004C005C006C007AC27AD28E41234
:1006BC0001DAA804A905AA06AB07D007D006D00515
:1006CC00D00412015C60025005755C0B8042AC25B5
:1006DC00AD26E41201DA7B9A7A997919783F1200E7
:1006EC0056C004C005C006C007AC27AD28E41201F3
:1006FC00DAA804A905AA06AB07D007D006D005D006
:10070C000412015C60025005755C0C8003755C0D75
:10071C00AC2BAD2CE41201DA7BCD7ACC79CC783DC4
:10072C00120056C004C005C006C007AC35AD36E497
:10073C001201DAA804A905AA06AB07D007D006D087
:10074C0005D00412015C60025006755E0A0207DCDB
:10075C00AC2BAD2CE41201DAE4FBFA7980783E1272
:10076C000056C004C005C006C007AC35AD36E41257
:10077C0001DAA804A905AA06AB07D007D006D00554
:10078C00D00412015C60025005755E0B8042AC2BEC
:10079C00AD2CE41201DA7B9A7A997919783F120020
:1007AC0056C004C005C006C007AC35AD36E4120116
:1007BC00DAA804A905AA06AB07D007D006D005D045
:1007CC000412015C60025005755E0C8003755E0DB1
:1007DC0075570F75580F75590F755B0E755D0E02B9
:1007EC0009A0E53E701012241A78507C007D007E22
:1007FC00007F0712032DE556C4540FF557E55654E8
:10080C000FF55875590EE554C4540FF55AE5545468
:10081C000FF55B755C0EE553C4540FF55DE5538025
:10082C003DE53E701012241A78507C007D007E004D
:10083C007F0712032DE552C4540FF557E552540FA0
:10084C00F55875590EE551C4540FF55AE551540F2E
:10085C00F55B755C0EE550C4540FF55DE550540F17
:10086C00F55E0209A012240C78447C007D007E0009
:10087C007F0A12032DAE27AF287C007D0F1203A236
:10088C00AA06AB077C007D0F1203A27C007D6412CC
:10089C0003A27C007D641203A28D577C007D0AAFFD
:1008AC0003AE021203A27C007D0A1203A28D58AE85
:1008BC0027AF287C007D0F1203A27C007D0A120357
:1008CC00A28D59755A0F755B0FAE35AF367C007D16
:1008DC00641203A28F5CAE35AF367C007D0A120326
:1008EC00A27C007D0A1203A28D5DAE35AF367C0072
:1008FC007D0A1203A28D5E0209A0122403C3EF9598
:10090C002AF53DEE9529F53C75570F75580F75591D
:10091C000FC364809480500EC3E4953DF53DE4957F
:10092C003CF53C75590EAE3CAF3D7C277D10120357
:10093C00F78F5AAE3CAF3D7C277D101203F78C3CF1
:10094C008D3DAE3CAF3D7C037DE81203F78F5BAE73
:10095C003CAF3D7C037DE81203F78C3C8D3DAE3CF7
:10096C00AF3D7C007D641203F78F5CAE3CAF3D7CE9
:10097C00007D641203F78C3C8D3DAE3CAF3D7C009A
:10098C007D0A1203F78F5DAE3CAF3D7C007D0A12F1
:10099C0003F78D5EE522C394084023E53E24FE60F8
:1009AC000F1460142402701675570A75580A800EBD
:1009BC00755A0A755B0A8006755D0A755E0A855A5A
:1009CC0063855B64855C65855D66855E67AB59ADEB
:0609DC0058AF570221563E
:10000E00E4FF121C65BF020CE539B4050712240388
:05001E008E298F2A224B
:101F8B007F01121D35BF01220539E539D394054078
:101F9B0003753901AF3912242EAD39E4FF1222BC7F
:0B1FAB00E539B40505E4FF121E3122E9
:1022D1001223C9EF700D0533FB7A00792D7D08FCBF
:0422E100121F5D2249
:1022A700122226EF700E05330533FB7A00792D7D58
:0522B70008121DB42215
:03002600020000D5
:0100290022B4
:01002A0022B3
:10200A00854827854928854A35854B36D3E5369450
:10201A00FFE535940040067E007FFF8004AE35AFB1
:08202A00368E358F360205ECFD
:10208200AE27AF287C007D0F1203A27D01121945F5
:102092007D02AF36AE351219457B007A00792D7D6F
:0620A200087C0002205A38
:01004100229C
:03003E0002000EAF
:03243A00021F8BF3
:1022E500120003BF010B7D647C007F467E05121A38
:0222F50047227E
:10219600C3EF9DEE9C5004AB078002AB05D3EF9DC9
:0D21A600EE9C40028002AF05C3EF9BFF22BC
:061945008E578F588D59EA
:10194B00785A7C007D007BFF7A2079C67E007F066B
:10195B0012032DD3E55894FFE55794005060E557DB
:10196B00C4F854F0C8E558C4540F487E00540FFF18
:10197B00D39409EE9400400874502FF8E6FF8010C2
:10198B00E557C4F854F0C8E558C4540F48540FFF3A
:10199B00E55925E0242DF8A6077E00E558540FFFE6
:1019AB00D39409EE9400400874502FF8E6FF80059D
:0E19BB00E558540FFFE55925E0242EF8A60745
:0119C90022FB
:101107001221D01221B31221ED1222427F98121E12
:10111700CD78577C007D007B007A0079507E007F78
:101127000712032D1210097F2B12233A7FC07E125C
:101137001218BC7D017F607E091215DF7BFF7A24C0
:10114700793A7F041219CA7BFF7A007929E4FF12E2
:1011570019CA7BFF7A00792A7F011219CA7BFF7AA5
:1011670020790A7F021219CA7BFF7A2079827F03CE
:101177001219CA7BFF7A2279E57F051219CA7BFF0C
:101187007A00793E7F071219CA7BFF7A0079417F7F
:10119700081219CA7D07E4FF1223E8755C00755D24
:1011A70000755E3A755F007560027B007A00792DE5
:1011B7007D087C00121E9A755C00755D00755E3AAD
:1011C700755F007560027B007A00792D7D087C00D1
:1011D700121E677B007A00792D122421E4FF122268
:0E11E7000A8F3912242E122434121DF380FBBD
:0923DF008B88898C88898F88891C
:100BAE0052007A86860086860086860086860086B5
:090BBE00860086860041006F09E3
:03002B0002242884
:0624280053BCEFD20C32A0
:0209E200157787
:1009E400200C03020B8BC20C90006EE0B409004093
:1009F40003020B6D9009FFF8282873020A46020AC5
:100A04001A020A2C020A58020A1A020A2C020A6F53
:100A1400020A1A020A2CAFBDEFFEADBE7C00E42D23
:100A2400FFEC3E900070803CAFBDEFFEADBE7C009D
:100A3400E42DFFEC3E900072F0A3EFF0756E01021E
:100A44000B73AFBDEFFEADBE7C00E42DFFEC3E901A
:100A540000748010AFBDEFFEADBE7C00E42DFFEC52
:100A64003E900076F0A3EFF0020B73AFBDEFFEAD46
:100A7400BE7C00E42DFFEC3E900078F0A3EFF090F4
:100A84000078E0FEA3E07807CEC313CE13D8F9A80C
:100A940077F6C394065013A877E675F003A4247A76
:100AA400F582E43400F583E014F090006FE014F074
:100AB4006003020B737409F0A877E4F6A877E6FFE5
:100AC400C394064003020B73EF75F003A4247AF574
:100AD40082E43400F583E0C39480502AE6FF75F085
:100AE40003A4247BF582E43400F583E0D3948040AE
:100AF40040EF75F003A4247CF582E43400F583749C
:100B040001F0F56F802BA877E6FF75F003A4247B32
:100B1400F582E43400F583E0C394805014EF75F05B
:100B240003A4247CF582E43400F5837402F0756F29
:100B340001A877E6FF75F003A4247AF582E4340073
:100B4400F583E0FEEF75F003A4247BF582E4340022
:100B5400F583EEF0E675F003A4247AF582E434001C
:100B6400F5837486F006020AC090006E74FFF0905C
:100B7400006EE0D39408400374FFF090006EE0042C
:070B8400F09023DF93F5BCA4
:030B8B00057722C9
:022377001577D8
:09237900A877A66FE4F56FE6FFFA
:03238200057722BA
:022385001577CA
:09238700A877A66EE4F56EE6FFEE
:03239000057722AC
:101ECD008F9D75BC88439720D2AD90004574FFF06F
:101EDD00A37409F0A374E2F0A374FFF0A37423F0CC
:101EED00A37477F0A374FFF0A37423F0A37485F0AB
:011EFD0022C2
:07240C007B017A00797022C8
:101C6500C3EF64809480403BD3EF64809485503308
:101C7500EFFD3395E0FC90007C75F003ED1205DA7D
:101C8500EC75F003A42583F583E0FE90007C75F0E8
:101C950003ED1205DAEC75F003A42583F583E4F072
:051CA500AF06227F03E1
:011CAA002217
:042032001577157792
:102036001223F1A877A60608A607A877E6FE08E603
:0F204600FF4E600BEF24FFFFEE34FFFE1223FA74
:0520550005770577226C
:1021360053B1EF43B210122440E4F5D975DA49D20F
:10214600DE90003F74FFF0A37420F0A37432F022F7
:081A47008E578F588C598D5AFF
:101A4F001223F1EF4E7066AF5AAE591223FAC3E567
:101A5F0058940AE5579400404BE47B18FAF9F89034
:101A6F0020A81205BE1204E4C006C007AE57AF5837
:101A7F00AB07AA06E4F9F8D007D0061204E4AB07C7
:101A8F00AA06AFF9EFFEADE97C00E42DFFEC3ECFE7
:101A9F002BCF3AAD07FCAF03AE02122309D2D843C6
:0F1AAF00DA01800612244053DAFE7F02227F0301
:011ABE002205
:0C23BD001223F1EF4E7002FF227F01227C
:1011F500E4F5809000C5E0FFB40800505F90120947
:10120500F828287302122102122702122D02123326
:1012150002123902124302124D021257C2A3C2A290
:101225008016C2A3C2A2801AC2A3C2A2801EC2A3F4
:10123500C2A28022C2A3D2A2C2A1C2A08020C2A300
:10124500D2A2C2A1D2A08016C2A3D2A2D2A1C2A00C
:10125500800CC2A3D2A2D2A1D2A08002D2A3C3EF96
:101265006480948850299000C5E0FF3395E0FE74B2
:10127500BC2FF58274003EF583E0FF3395E0FE74E4
:10128500AC2FF58274203EF583E493F580801E90A3
:1012950000C5E0FFB408133395E0FE74BC2FF5825A
:1012A50074003EF583E0F5808003E4F5809000BB93
:1012B500E0FF9000C5E004FEF0D3EF6480F8EE6433
:1012C50080984014E0D36480948850047408F02218
:0912D5009000BAE09000C5F0227F
:10224200E4F5937594FF5395F043960F90002A742A
:0B225200FFF0A37411F0A374F5F0225C
:0923E8009000BAEFF0A3EDF02221
:102156009000BCEFF0A3EDF0A3EBF0A3E563F0A3D2
:10216600E564F0A3E565F0A3E566F0A3E567F02274
:06242E009000C4EFF02253
:100BC7000174004100E7004100E4054100E583416D
:030BD70000E683B2
:101CAB002092069000E5E014F09000E4E014F07050
:101CBB00347405F0A3E0FFC39480500EA3E094802E
:101CCB004018A37401F0F57480109000E6E0C39403
:101CDB00805007A37402F07574019000E6EFF0904A
:051CEB0000E57483F028
:011CF00022D1
:022393001577BC
:09239500A877A674E4F574E6FFD4
:03239E000577229E
:1021B30090003674FFF0A37423F0A37493F090009F
:0D21C3003374FFF0A3741CF0A374ABF02282
:070003009000E7E0FFE4F0CC
:01000A0022D3
:100BDA000175004900D294940094940094940041C1
:030BEA0000D11E19
:020CB7001577AF
:100CB90020B2069000D2E014F020B3069000D5E0EF
:100CC90014F02097069000D8E014F09000D1E014B9
:100CD900F06003020DD7741EF0A877E4F6A877E652
:100CE900FFC3648094834003020DD7EF3395E0FE80
:100CF9009000D275F003EF1205DAEE75F003A42522
:100D090083F583E0C3948050399000D375F003EFE5
:100D19001205DAEE75F003A42583F583E0D39480F8
:100D2900405AE6FF3395E0FE9000D475F003EF12C8
:100D390005DAEE75F003A42583F5837401F0F575E2
:100D4900803AA877E6FF3395E0FE9000D375F0036B
:100D5900EF1205DAEE75F003A42583F583E0C39459
:100D69008050199000D475F003EF1205DAEE75F092
:100D790003A42583F5837402F0757501A877E6FF4E
:100D8900FD3395E0FC9000D275F003ED1205DAEC25
:100D990075F003A42583F583E0FE9000D375F00375
:100DA900ED1205DAEC75F003A42583F583EEF0EF77
:100DB9003395E0FE9000D275F003EF1205DAEE7577
:0E0DC900F003A42583F5837494F006020CE673
:030DD7000577227B
:0223A1001577AE
:0923A300A877A675E4F575E6FFC4
:0323AC0005772290
:1021D00090003074FFF0A37423F0A374A1F090007A
:0D21E0002D74FFF0A3740CF0A374B7F0226F
:101D3500EF600764016003BF0233EFFD3395E0FCFC
:101D45009000D475F003ED1205DAEC75F003A425C7
:101D550083F583E0FE9000D475F003ED1205DAEC0F
:0F1D650075F003A42583F583E4F0AF06227F0316
:011D7400224C
:100BED004100000A4100290A41006D0A040E00006F
:100BFD0000000116004600670000FFFF8FFFC10ACD
:100C0D00C105C108C101C10B60240005FF0042FFF1
:100C1D000042FF0042FF0042FF0042FF0042FF0082
:100C2D0042FF0042FF0042FF0042FF0042FF004230
:100C3D006036002AFF0042FF0042FF243DFF0042C4
:100C4D00FF243DFF0042FF243DFF0042FF0042FF15
:100C5D000042FF243DFF243DFF243DFF243DFF00C6
:0A0C6D0042FF0042FF0042FF004278
:01004200229B
:03243D007F0022FB
:101C1E00438E805389F07BE07A28790178009020FA
:101C2E00A81205BE121CF1EFF404F58A7BE07A28A7
:101C3E00790178009020A81205BE121CF1C3E49F12
:101C4E00FFE49EFE74019DFDE49CFC78081205974E
:071C5E008F8CD28CD2A92269
:03000B00021BD005
:041BD000C0E0C0D0E1
:101BD400D5080A75084C300A020516D20AA2037207
:101BE400045032150AE50A702C850C0AD207300914
:101BF40017E50D6007150D438F018019538FFEC241
:101C0400B5D51811C209800D050BE50BD394064018
:051C140004D206C2032A
:051C1900D0D0D0E03244
:101B7D00300B47C20B9020A81205BE7810120597A6
:101B8D008E708F71900003E0FEA3E0FFE4FCFD7BFF
:101B9D0019FAF9F8120459C006C007AE70AF71AB4F
:101BAD0007AA06E4F9F8D007D006121CF178031243
:101BBD000597900065EEF0A3EFF0900065E0FEA3B1
:021BCD00E0FF37
:011BCF0022F3
:0923F100900067E0FEA3E0FF226A
:0923FA00900067EEF0A3EFF02261
:1023090090006BEEF0A3EFF0900069ECF0A3EDF014
:0123190022A1
:03244000C2B42201
:03003B000214921A
:10149200C0E0C083C082C0D075D000C004C005C007
:0314A20006C0077A
:1014A50030DF04C2DF807D30DA04C2DA807630D9DD
:1014B5003DC2D9AFFBEFFEADEB7C00E42DFFEC3E6A
:1014C50020000E900001F0A3EFF075DB11D2008033
:1014D50053FE900001E0FCA3E0FDC3EF9DFFEE9CF1
:1014E500A3F0A3EFF075DB00C200D20B803630D835
:1014F50033C2D8900067E07002A3E06022B2B490D6
:101505000069E0FEA3E0F5EAEEF5FAA3E0FEA3E04C
:10151500FF90006AE02FF0900069E03EF08005C280
:04152500B453DAFEE3
:10152900D007D006D005D004D0D0D082D083D0E067
:01153900327F
:06243400121C1ED2AF22B3
:101831003004047F0180027F002009047E018002C0
:101841007E00EE5F6074E517C3950950683002367B
:10185100750D01E517131313541FAB19AA1AA91B10
:10186100F582758300120353FFE517540704FEEF59
:10187100A806088002C333D8FC30D7057518038049
:101881002F751801802AAB19AA1AA91B75F002E558
:1018910017A4F58285F083120353F50DE51775F052
:1018A10002A429F9EA35F0FA900001120353F51860
:0A18B1000517D20922C204438F106C
:0118BB00220A
:1013C500900000E014F0701F740AF0D20590002917
:1013D500E014F07012740AF0D20890006DE014F079
:1013E5007005740AF0D20190002AA3E0FAA3E0F98F
:1013F5001205E690002DA3E0FAA3E0F91205E690A8
:101405000039A3E0FAA3E0F91205E6900045A3E050
:10141500FAA3E0F91205E6900054A3E0FAA3E0F977
:101425001205E690005DA3E0FAA3E0F91205E69047
:101435000005A3E0FAA3E0F91205E690004BA3E04E
:10144500FAA3E0F91205E6EF600C90001DA3E0FA9F
:10145500A3E0F91205E690004EA3E0FAA3E0F91225
:1014650005E6EF600C900020A3E0FAA3E0F9120571
:10147500E6900051A3E0FAA3E0F91205E6EF600C4F
:0D148500900023A3E0FAA3E0F91205E6228F
:1016820090003FA3E0FAA3E0F91205E6900042A31E
:10169200E0FAA3E0F91205E6900033A3E0FAA3E032
:1016A200F91205E6900008A3E0FAA3E0F91205E6B4
:1016B200900030A3E0FAA3E0F91205E6EF600C9087
:1016C2000011A3E0FAA3E0F91205E6900036A3E0C8
:1016D200FAA3E0F91205E6EF600C900017A3E0FA16
:1016E200A3E0F91205E6900048A3E0FAA3E0F9129C
:1016F20005E6EF600C90001AA3E0FAA3E0F91205E8
:10170200E630060EC206900026A3E0FAA3E0F91224
:0317120005E622C7
:101D750090000BA3E0FAA3E0F91205E690003CA35E
:101D8500E0FAA3E0F91205E6EF600C900014A3E079
:101D9500FAA3E0F91205E6900057A3E0FAA3E0F9EB
:0F1DA5001205E690005AA3E0FAA3E0F90205E662
:101FB600AF11AE10AD0FAC0E9000601205CE9000C2
:101FC60064E516F0E4F511F510F50FF50EF516902B
:0B1FD600000EA3E0FAA3E0F90205E60C
:101DF300300705C207121831300A05C20A1213C58B
:101E0300300505C205121682300805C208121D7579
:101E1300300105C201121FB6E5112401F511E435A5
:0E1E230010F510E4350FF50FE4350EF50E2224
:1019CA008B578A588959EFB40C0050709019DDF87A
:1019DA00282873021A01021A06021A0B021A1002A6
:1019EA001A15021A1A021A1F021A24021A29021AAC
:1019FA002E021A33021A38900005803590000880AA
:101A0A003090000B802B90000E80269000118021D0
:101A1A00900017801C900014801790001A80129072
:101A2A00001D800D90002080089000238003900004
:0D1A3A0026E557F0A3E558F0A3E559F0228A
:072413007B017A00796022D1
:070C77000176004100E800D6
:0D002E0020A4097576019000E87401F0220D
:0223AF001577A0
:0923B100A877A676E4F576E6FFB4
:0323BA0005772282
:1021ED0090003C74FFF0A37423F0A374AFF0900043
:0D21FD003974FFF0A37400F0A3742EF022DB
:02234A00157705
:0A234C009000E8E0A877F6FFE4F047
:03235600057722E6
:040C7E004100E3014D
:10225D00C295E4FEEF1392CC000000D29500EFC3BF
:08226D0013FFC2950EBE08EC40
:012275002246
:10228F00E4FEEFC313FF30CC03430780D295000069
:07229F0000C2950EBE08EB22
:0122A6002215
:101F2F00F07F85121F42A3EFF07F87121F42A3EFAE
:031F3F00F07F89A7
:101F4200C296000000C295000000D2960012225DE7
:0A1F520012228FD295000000C29603
:011F5C002262
:03217600A3E0FDE6
:10217900C296000000C295000000D2960012225DAE
:0D218900AF0512225DD295000000C2962223
:07241A007B017A0079DC224E
:1022760078DC7C007D017B007A00795E7E007F073A
:0922860012032DE49000E3F022A4
:1022F700EFD3941F5009EF25E044C1FF021F427F2F
:022307000122B1
:101FE100AC07AB05ECD3941F501CE4FD7F8E12218E
:101FF10079EC25E044C0FFAD031221797D807F8E0D
:092001001221797F00227F0122E7
:02153A00157723
:10153C009000E3E060447F81121F42A877EFF690A1
:10154C0000DCE06F70030215DCA877E6F07F8312F5
:10155C001F42A877EFF6A3E06F6075A877E6121F1D
:10156C002FA3EFF07F8D121F429000E2EFF07F8BE4
:10157C00121F429000E1EFF080569000DBE0FF0478
:10158C00F0EFC3940A4049E4F09000E304F0E4FD6A
:10159C007F8E1221799000DCE0FD7F801221797F13
:1015AC00821221767F84122176A3E0FD7F861221A0
:1015BC0079A3E0FD7F88122179A3E0FD7F8A1221B7
:1015CC0079A3E0FD7F8C1221797D807F8E122179A9
:0315DC000577226E
:101009007F81121F429000DCEFF07F83121F42A301
:10101900EF121F2FA3EFF07F8B121F42A3EFF07F78
:101029008D121F42A3EFF0E4FD7F8E1221797F1EFE
:101039001222F7EF64A560047F0180027F0090000F
:10104900DCE05480FEA3E0D3945940047D01800282
:101059007D00ED4EFE9000DEE0D394A440047D01B6
:1010690080027D00ED4EFE9000DFE0D39431400414
:101079007D0180027D00ED4EFE9000E0E0D39412E8
:1010890040047D0180027D00ED4EFE9000E1E0D339
:10109900940740047D0180027D00ED4EFE9000E240
:1010A900E0D3949940047D0180027D00ED4E4F60AC
:1010B90030785E7C007D007B007A0079577E007F66
:1010C9000712032D1222767DA57F1E121FE178DCFF
:1010D9007C007D017B007A0079577E007F0712032F
:1010E9002D7DA97F901221797D807F8E12217990A3
:0E10F900005A74FFF0A37415F0A3743AF022AD
:10231A00D2C0000000D2CD000000C2C000000022DE
:0D004600C2C0000000D2CD000000D2C022D8
:0B20CC001220F01220D7AF051220F008
:1020D700E4FFD2CD30C009EFC394FF50030F80F463
:0820E700000000C2CD00000062
:0120EF0022CE
:1020F000E4FEEF25E0FFC2CD00000092C00000002A
:10210000D2CD0000000EBE08E9C2CD000000D2C052
:03211000000000CC
:0121130022A9
:10211400C2CD000000D2C000E4FED2CD0000EF2505
:10212400E0FDA2C0E4334DFF0000C2CD000EBE08A6
:01213400E9C1
:012135002287
:1022BC00AC0712231A7FA01220F01220D7AF041201
:0522CC0020CC020046D9
:02220A00AD071E
:10220C0012231A7FA01220CC12231A7FA11220F0C5
:09221C001220D712211412004611
:012225002296
:101715008B1EAA077C007E037FE81203A29000CDF2
:10172500EEF0A3EFF0E51FFD7C007E037FE81203DA
:10173500A2A3EEF0A3EFF0AF02AB07E4FAF9F8903D
:1017450000CDE0FEA3E0FFE4FCFD120459EF2432D6
:10175500FFE43EFEE43DFDE43CFCE47B64FAF9F87D
:10176500121CF19000C7EEF0A3EFF0AF1EAB07E43B
:10177500FAF9F89000CFE0FEA3E0FFE4FCFD1204C7
:1017850059EF2432FFE43EFEE43DFDE43CFCE47BFE
:1017950064FAF9F8121CF19000C9EEF0A3EFF022FB
:101B2400E4F55AF559F558F557F55BD291AF5AAE2D
:101B340059AD58AC5778011205AB8F5A8E598D5850
:101B44008C5700C291309015E4FAF9F8EF2401F5AE
:101B54005AEA3EF559E93DF558E83CF557055BE589
:101B64005BB418C700D2910000C291AF5AAE59AD10
:081B740058AC577808120597E0
:011B7C002246
:092403009000CBE0FEA3E0FF22F3
:0F232A009000CBE0FEA3E0FFE49000CBF0A3F027
:012339002281
:1012DE009000C6E0700F30900122121B249000CBBC
:1012EE00EEF0A3EFF09000C6E0FF640170620569B6
:1012FE00E56970020568FDD39000CEE09D9000CDAB
:10130E00E095685005E4F568F569D39000C8E0955E
:10131E00699000C7E095684004D2908002C29005A3
:10132E006BE56B7002056AFDD39000D0E09D9000D6
:10133E00CFE0956A5005E4F56AF56BD39000CAE0EC
:10134E00956B9000C9E0956A4004D2918002C291DB
:10135E00EF6402703E2090047F0180027F00E56CF6
:10136E0060047E0180027E00EE5F6021309110905D
:10137E0000CCE004F070169000CBE004F0800E90EC
:10138E0000CCE024FFF09000CBE034FFF0A290E41C
:10139E0033F56C9000C6E0B4031CE56D7002D2917B
:1013AE00E56DB40105C29175DB21056DE56DC39444
:0613BE00C84003E4F56DD8
:0113C4002206
:101E31009000C6EFF07004C2918002D2919000C66A
:101E4100E0B40310E5A254CFF5A2E4F5D975DB01A6
:101E5100D2DE8003E4F5DB90005D74FFF0A3741221
:061E6100F0A374DEF02284
:10233A0053B1DF43B220C2B5C2098F0C438F1022BA
:03005300021ABFCF
:101ABF00C0E0C083C082C0D075D000C000C001C0DC
:031ACF0002C0034F
:101AD200200313D203757308751500757200E50CA7
:101AE200C313F50A8028E57225E0F572E50BC3946D
:101AF2000340020572D57316757308AB12AA13A9B7
:101B020014851582758300E5721203800515750B25
:011B120000D2
:101B1300D003D002D001D000D0D0D082D083D0E087
:011B2300328F
:072421008B128A13891422BB
:03244300AF1522B0
:101EFE002003047F0180027F002009047E018002FE
:101F0E007E00EE5F60188B198A1A891BEDC313F5DC
:101F1E0009C202E4F517538FEFD2047F02227F032A
:011F2E002290
:101DB4002003047F0180027F002009047E01800249
:101DC4007E00EE5F6026538FEF750D10751808D2F4
:101DD40009438F018B198A1A891BED75F008A40435
:0F1DE400F509D202E4F517D2047F02227F032211
:102226002003047F0180027F002009047E018002D2
:0C2236007E00EE5F60037F00227F01222B
:100C820057008C04B00000000000000000000000CB
:0A0C92000000000001000000000057
:03004300020DDAD1
:100DDA00C0E0C0F0C083C082C0D075D000C000C0DF
:100DEA0001C002C003C004C005C006C007E59A30AE
:100DFA00E141539AFD900093E0FEA3E0FFC3900007
:100E0A0092E09F900091E09E501F90008EE0FBA31D
:100E1A00E0FAA3E0F9A3E475F00112044385F08235
:100E2A00F583120353F59B800A900095E4F0300D88
:100E3A0002C2B7E59A20E003020EDC539AFE900044
:100E4A0096E0FBA3E0FAA3E0F990009BE0FEA3E0A2
:100E5A00FFF5828E83E59B1203809000A1E0FCA33C
:100E6A00E0FDC3EF9DEE9C5046900099E0FEA3E0A2
:100E7A00FFED9FEC9E503890009EE0FBA3E0FAA3A2
:100E8A00E0F990009BE0FEA3E0FFF5828E83120357
:100E9A0053FD900096E0FBA3E0FAA3E0F98F828E5F
:100EAA00831203536D600890009B74FFF0A3F090C7
:100EBA00009BE475F00112042DFED390009AE09590
:100ECA00F0900099E09E500A90009BE4F0A3F0A3F2
:100EDA0004F0D007D006D005D004D003D002D00148
:0D0EEA00D000D0D0D082D083D0F0D0E03244
:022359001577F6
:0A235B0090009DE0A877F6FFE4F083
:03236500057722D7
:012446002273
:1015DF008E578F58ED42BABD0106C2B7D20D801794
:1015EF0090005D74FFF0A37424F0A37446F0E4F54B
:1015FF00DBD290D291C20D759A10E47B04FAF9F800
:10160F009020A81205BE1204E4C006C007AE57AF63
:10161F0058AB07AA06E4F9F8D007D0061204E4EF96
:10162F00F404F5D7E47B04FAF9F89020A81205BE6C
:10163F001204E4C006C007AE57AF58AB07AA06E4C2
:10164F00F9F8D007D0061204E4C3E49FFFE49EFE2E
:10165F0074019DFDE49CFC78081205848FD6438E9F
:10166F001443AF0190005174FFF0A37423F0A374DF
:03167F0059F022FD
:101E6700900096EBF0A3EAF0A3E9F0A3ECF0A3ED62
:101E7700F09000A1E55FF0A3E560F090009EE55CBF
:101E8700F0A3E55DF0A3E55EF0E490009BF0A3F01E
:031E9700A3F02293
:101F5D00900095E0702590008EEBF0A3EAF0A3E9D8
:101F6D00F0E4A3F0A3F0A3ECF0A3EDF0A37401F063
:0E1F7D00300D02D2B7439A027F02227F032268
:0B23C900900095E07002FF227F0122CF
:100C9C005700A304B000000000000000000000009A
:0A0CAC00000000000100000000003D
:03002300020EF7D3
:100EF700C0E0C0F0C083C082C0D075D000C000C0C1
:100F070001C002C003C004C005C006C00730993B3A
:100F1700C2999000AAE0FEA3E0FFC39000A9E09F5A
:100F27009000A8E09E501F9000A5E0FBA3E0FAA365
:100F3700E0F9A3E475F00112044385F082F583120A
:100F47000353F59980059000ACE4F0209803020F55
:100F5700EEC2989000ADE0FBA3E0FAA3E0F99000A1
:100F6700B2E0FEA3E0FFF5828E83E599120380903D
:100F770000B8E0FCA3E0FDC3EF9DEE9C5046900057
:100F8700B0E0FEA3E0FFED9FEC9E50389000B5E087
:100F9700FBA3E0FAA3E0F99000B2E0FEA3E0FFF5BF
:100FA700828E83120353FD9000ADE0FBA3E0FAA30A
:100FB700E0F98F828E831203536D60089000B2743C
:100FC700FFF0A3F09000B2E475F00112042DFED3F8
:100FD7009000B1E095F09000B0E09E500A9000B20A
:100FE700E4F0A3F0A304F0D007D006D005D004D0D6
:100FF70003D002D001D000D0D0D082D083D0F0D09F
:02100700E032D5
:022368001577E7
:0A236A009000B4E0A877F6FFE4F05D
:03237400057722C8
:1018BC008E578F58759850438E40538EFE53890F18
:1018CC00E47B04FAF9F89020A81205BE1204E4C0D7
:1018DC0006C007AE57AF58AB07AA06E4F9F8D00715
:1018EC00D0061204E4EFF404F58BE47B04FAF9F867
:1018FC009020A81205BE1204E4C006C007AE57AF74
:10190C0058AB07AA06E4F9F8D007D0061204E4C3D2
:10191C00E49FFFE49EFE74019DFDE49CFC7808129C
:10192C0005848F8DC2ABD28ED2AC90004E74FFF07A
:09193C00A37423F0A37468F022E7
:101E9A009000ADEBF0A3EAF0A3E9F0A3ECF0A3ED18
:101EAA00F09000B8E55FF0A3E560F09000B5E55C5E
:101EBA00F0A3E55DF0A3E55EF0E49000B2F0A3F0D4
:031ECA00A3F02260
:10205A009000ACE0701F9000A5EBF0A3EAF0A3E9B2
:10206A00F0E4A3F0A3F0A3ECF0A3EDF0A37401F065
:08207A00D2997F02227F0322AC
:0B23D4009000ACE07002FF227F0122AD
:10005600EC4D6011E8497017ED33EC3304600DE4A4
:10006600FCFFFEFD22E933E8330470F80202481271
:10007600021358046009E4CC248150062850090272
:10008600025228400302024FC0E0EB4A7044B98096
:1000960006D0E0FB02023EEF4E701CBD8008EBFF6F
:1000A600EAFEE9FD80EBE98DF0A4FEE5F002013FF2
:1000B600E9CDF9EAFEEBFFEF89F0A4FCE5F0CE8985
:1000C600F0A42EFFE435F0CD89F0A42DFEE435F042
:1000D6008067EF4E7005BD80D780C3EF8BF0A4AC70
:1000E600F0EE8BF0A42CFCE435F0F8EF8AF0A42CAB
:1000F600E5F038FCE433CB8DF0A42CFCE5F03BF8BE
:10010600EE8AF0A42CFCE5F038F8E433CF89F0A4AD
:100116002CFCE5F038CF3400CE89F0A42FFFE5F0B3
:100126003EFEE433C98DF0A42EFEE5F039CD8AF00B
:10013600A42FFFE5F03EFEE43DFD33D0E0FB500783
:100146000BBB000F020252EC2CFCEF33FFEE33FE2A
:06015600ED33FD02022A58
:10015C0074F8CC6480CCC86480C8F58204604FC34A
:10016C00EB9FF5F0EA9E42F0E99D42F0E89C45F0E9
:10017C00603C501DE5825FFFE582D313CB5BCBF473
:10018C002B5582FB50280ABA002409B9002008809C
:10019C001DE5825BFBE582D313CF5FCFF4C3132F36
:1001AC005582FF50090EBE00050DBD00010CC3EBBE
:1001BC009FF5F0EA9E42F0E99D42F0E89C45F06024
:0901CC0007CC4820E701B3EC2246
:1001D50075F020800E75F010800575F0087D007EA5
:1001E500007F003392D530D503120576EC334010ED
:1001F500EF33FFEE33FEED33FDEC33FCD5F0ED22AE
:0E020500E5F0247EA2D513CC92E7CDCEFF22E9
:10021300E9D2E7C933E833F892D5EDD2E7CD33EC31
:0702230033FC5002B2D522AA
:10022A00EC30E7100FBF000C0EBE00080DBD000435
:10023A000BEB6014A2D5EB13FCED92E7FD2274FFE1
:10024A00FCFDFEFF22E480F8A2D574FF13FC7D803A
:03025A00E480EF4E
:030000000217A53F
:0C17A500787FE4F6D8FD7581770217EC20
:10025D00E709F608DFFA8046E709F208DFFA803E83
:10026D0088828C83E709F0A3DFFA8032E309F60870
:10027D00DFFA8078E309F208DFFA807088828C83D8
:10028D00E309F0A3DFFA806489828A83E0A3F6088C
:10029D00DFFA805889828A83E0A3F208DFFA804C66
:1002AD0080D280FA80C680D4806980F2803380103D
:1002BD0080A680EA809A80A880DA80E280CA8033A6
:1002CD0089828A83ECFAE493A3C8C582C8CCC5831E
:1002DD00CCF0A3C8C582C8CCC583CCDFE9DEE780EE
:1002ED000D89828A83E493A3F608DFF9ECFAA9F06D
:1002FD00EDFB2289828A83ECFAE0A3C8C582C8CCC3
:10030D00C583CCF0A3C8C582C8CCC583CCDFEADEDB
:10031D00E880DB89828A83E493A3F208DFF980CC3D
:10032D0088F0EF60010E4E60C388F0ED2402B40436
:10033D000050B9F582EB2402B4040050AF232345DD
:06034D0082239002AD7353
:10035300BB010CE58229F582E5833AF583E022505F
:1003630006E92582F8E622BBFE06E92582F8E222A9
:0D037300E58229F582E5833AF583E49322C3
:10038000F8BB010DE58229F582E5833AF583E8F0B3
:10039000225006E92582C8F622BBFE05E92582C85F
:0203A000F22247
:1003A200BC000BBE0029EF8DF084FFADF022E4CC3F
:1003B200F875F008EF2FFFEE33FEEC33FCEE9DEC08
:1003C200984005FCEE9DFE0FD5F0E9E4CEFD22ED4E
:1003D200F8F5F0EE8420D21CFEADF075F008EF2F98
:1003E200FFED33FD4007985006D5F0F222C398FD89
:0503F2000FD5F0EA2226
:1003F700C2D5EC30E709B2D5E4C39DFDE49CFCEE21
:1004070030E715B2D5E4C39FFFE49EFE1203A2C3F3
:10041700E49DFDE49CFC80031203A230D507C3E4EE
:060427009FFFE49EFE228F
:10042D00C5F0F8A3E028F0C5F0F8E582158270025A
:06043D001583E038F022F7
:10044300A3F8E0C5F025F0F0E5821582700215836C
:06045300E0C838F0E822C9
:10045900E88FF0A4CC8BF0A42CFCE98EF0A42CFC42
:100469008AF0EDA42CFCEA8EF0A4CDA8F08BF0A4C0
:100479002DCC3825F0FDE98FF0A42CCD35F0FCEB1F
:100489008EF0A4FEA9F0EB8FF0A4CFC5F02ECD39E4
:0F049900FEE43CFCEAA42DCE35F0FDE43CFC2251
:1004A80075F008758200EF2FFFEE33FECD33CDCC0B
:1004B80033CCC58233C5829BED9AEC99E58298408E
:1004C8000CF582EE9BFEED9AFDEC99FC0FD5F0D66B
:1004D800E4CEFBE4CDFAE4CCF9A88222B800C1B995
:1004E8000059BA002DEC8BF084CFCECDFCE5F0CBD3
:1004F800F97818EF2FFFEE33FEED33FDEC33FCEB0C
:1005080033FB10D703994004EB99FB0FD8E5E4F9C6
:10051800FA227818EF2FFFEE33FEED33FDEC33FCB3
:10052800C933C910D7059BE99A4007EC9BFCE99AA7
:10053800F90FD8E0E4C9FAE4CCFB2275F010EF2FEC
:10054800FFEE33FEED33FDCC33CCC833C810D707EC
:100558009BEC9AE899400AED9BFDEC9AFCE899F827
:0E0568000FD5F0DAE4CDFBE4CCFAE4C8F922BA
:101CF100C2D5E830E70FB2D5E4C39BFBE49AFAE41E
:101D010099F9E498F8EC30E717B2D5121D271204BF
:101D1100E4E4C39BFBE49AFAE499F9E498F88003BC
:101D21001204E430D50DE4C39FFFE49EFEE49DFD63
:041D3100E49CFC2210
:0E057600C3E49FFFE49EFEE49DFDE49CFC2296
:10058400E8600FECC313FCED13FDEE13FEEF13FF55
:03059400D8F12279
:10059700E86010ECA2E713FCED13FDEE13FEEF137A
:0405A700FFD8F02267
:1005AB00E8600FEFC333FFEE33FEED33FDEC33FCAE
:0305BB00D8F12252
:1005BE00E493FC740193FD740293FE740393FF2283
:0C05CE00ECF0A3EDF0A3EEF0A3EFF022A0
:0C05DA00A42582F582E5F03583F583222C
:0605E6008A838982E473A0
:1017B100021107E493A3F8E493A34003F68001F236
:1017C10008DFF48029E493A3F85407240CC8C33339
:1017D100C4540F4420C8834004F456800146F6DF08
:1017E100E4800B0102040810204080900B8EE47EFF
:1017F100019360BCA3FF543F30E509541FFEE493FD
:10180100A360010ECF54C025E060A840B8E493A3C3
:10181100FAE493A3F8E493A3C8C582C8CAC583CAEE
:10182100F0A3C8C582C8CAC583CADFE9DEE780BEA6
:010CB600003D
:00000001FF
